{
  "_format": "hh3-artifact-1",
  "contractName": "SSROracle",
  "sourceName": "contracts/SSROracle.sol",
  "abi": [
    {
      "inputs": [
        {
          "internalType": "address",
          "name": "endpoint_",
          "type": "address"
        },
        {
          "internalType": "address",
          "name": "owner_",
          "type": "address"
        }
      ],
      "stateMutability": "nonpayable",
      "type": "constructor"
    },
    {
      "inputs": [],
      "name": "InvalidDelegate",
      "type": "error"
    },
    {
      "inputs": [],
      "name": "InvalidEndpointCall",
      "type": "error"
    },
    {
      "inputs": [
        {
          "internalType": "bytes",
          "name": "options",
          "type": "bytes"
        }
      ],
      "name": "InvalidOptions",
      "type": "error"
    },
    {
      "inputs": [],
      "name": "LzTokenUnavailable",
      "type": "error"
    },
    {
      "inputs": [
        {
          "internalType": "uint32",
          "name": "eid",
          "type": "uint32"
        }
      ],
      "name": "NoPeer",
      "type": "error"
    },
    {
      "inputs": [
        {
          "internalType": "uint256",
          "name": "msgValue",
          "type": "uint256"
        }
      ],
      "name": "NotEnoughNative",
      "type": "error"
    },
    {
      "inputs": [
        {
          "internalType": "address",
          "name": "addr",
          "type": "address"
        }
      ],
      "name": "OnlyEndpoint",
      "type": "error"
    },
    {
      "inputs": [
        {
          "internalType": "uint32",
          "name": "eid",
          "type": "uint32"
        },
        {
          "internalType": "bytes32",
          "name": "sender",
          "type": "bytes32"
        }
      ],
      "name": "OnlyPeer",
      "type": "error"
    },
    {
      "inputs": [
        {
          "internalType": "address",
          "name": "owner",
          "type": "address"
        }
      ],
      "name": "OwnableInvalidOwner",
      "type": "error"
    },
    {
      "inputs": [
        {
          "internalType": "address",
          "name": "account",
          "type": "address"
        }
      ],
      "name": "OwnableUnauthorizedAccount",
      "type": "error"
    },
    {
      "inputs": [],
      "name": "StaleData",
      "type": "error"
    },
    {
      "anonymous": false,
      "inputs": [
        {
          "components": [
            {
              "internalType": "uint32",
              "name": "eid",
              "type": "uint32"
            },
            {
              "internalType": "uint16",
              "name": "msgType",
              "type": "uint16"
            },
            {
              "internalType": "bytes",
              "name": "options",
              "type": "bytes"
            }
          ],
          "indexed": false,
          "internalType": "struct EnforcedOptionParam[]",
          "name": "_enforcedOptions",
          "type": "tuple[]"
        }
      ],
      "name": "EnforcedOptionSet",
      "type": "event"
    },
    {
      "anonymous": false,
      "inputs": [
        {
          "indexed": true,
          "internalType": "address",
          "name": "previousOwner",
          "type": "address"
        },
        {
          "indexed": true,
          "internalType": "address",
          "name": "newOwner",
          "type": "address"
        }
      ],
      "name": "OwnershipTransferred",
      "type": "event"
    },
    {
      "anonymous": false,
      "inputs": [
        {
          "indexed": false,
          "internalType": "uint32",
          "name": "eid",
          "type": "uint32"
        },
        {
          "indexed": false,
          "internalType": "bytes32",
          "name": "peer",
          "type": "bytes32"
        }
      ],
      "name": "PeerSet",
      "type": "event"
    },
    {
      "anonymous": false,
      "inputs": [
        {
          "indexed": false,
          "internalType": "uint256",
          "name": "oldSsr",
          "type": "uint256"
        },
        {
          "indexed": false,
          "internalType": "uint256",
          "name": "newSsr",
          "type": "uint256"
        },
        {
          "indexed": false,
          "internalType": "uint256",
          "name": "oldChi",
          "type": "uint256"
        },
        {
          "indexed": false,
          "internalType": "uint256",
          "name": "newChi",
          "type": "uint256"
        },
        {
          "indexed": false,
          "internalType": "uint256",
          "name": "oldRho",
          "type": "uint256"
        },
        {
          "indexed": false,
          "internalType": "uint256",
          "name": "newRho",
          "type": "uint256"
        }
      ],
      "name": "SSRDataUpdated",
      "type": "event"
    },
    {
      "inputs": [],
      "name": "RAY",
      "outputs": [
        {
          "internalType": "uint256",
          "name": "",
          "type": "uint256"
        }
      ],
      "stateMutability": "view",
      "type": "function"
    },
    {
      "inputs": [
        {
          "components": [
            {
              "internalType": "uint32",
              "name": "srcEid",
              "type": "uint32"
            },
            {
              "internalType": "bytes32",
              "name": "sender",
              "type": "bytes32"
            },
            {
              "internalType": "uint64",
              "name": "nonce",
              "type": "uint64"
            }
          ],
          "internalType": "struct Origin",
          "name": "origin",
          "type": "tuple"
        }
      ],
      "name": "allowInitializePath",
      "outputs": [
        {
          "internalType": "bool",
          "name": "",
          "type": "bool"
        }
      ],
      "stateMutability": "view",
      "type": "function"
    },
    {
      "inputs": [
        {
          "internalType": "uint32",
          "name": "_eid",
          "type": "uint32"
        },
        {
          "internalType": "uint16",
          "name": "_msgType",
          "type": "uint16"
        },
        {
          "internalType": "bytes",
          "name": "_extraOptions",
          "type": "bytes"
        }
      ],
      "name": "combineOptions",
      "outputs": [
        {
          "internalType": "bytes",
          "name": "",
          "type": "bytes"
        }
      ],
      "stateMutability": "view",
      "type": "function"
    },
    {
      "inputs": [],
      "name": "endpoint",
      "outputs": [
        {
          "internalType": "contract ILayerZeroEndpointV2",
          "name": "",
          "type": "address"
        }
      ],
      "stateMutability": "view",
      "type": "function"
    },
    {
      "inputs": [
        {
          "internalType": "uint32",
          "name": "eid",
          "type": "uint32"
        },
        {
          "internalType": "uint16",
          "name": "msgType",
          "type": "uint16"
        }
      ],
      "name": "enforcedOptions",
      "outputs": [
        {
          "internalType": "bytes",
          "name": "enforcedOption",
          "type": "bytes"
        }
      ],
      "stateMutability": "view",
      "type": "function"
    },
    {
      "inputs": [],
      "name": "getConversionRate",
      "outputs": [
        {
          "internalType": "uint256",
          "name": "",
          "type": "uint256"
        }
      ],
      "stateMutability": "view",
      "type": "function"
    },
    {
      "inputs": [
        {
          "components": [
            {
              "internalType": "uint32",
              "name": "srcEid",
              "type": "uint32"
            },
            {
              "internalType": "bytes32",
              "name": "sender",
              "type": "bytes32"
            },
            {
              "internalType": "uint64",
              "name": "nonce",
              "type": "uint64"
            }
          ],
          "internalType": "struct Origin",
          "name": "",
          "type": "tuple"
        },
        {
          "internalType": "bytes",
          "name": "",
          "type": "bytes"
        },
        {
          "internalType": "address",
          "name": "_sender",
          "type": "address"
        }
      ],
      "name": "isComposeMsgSender",
      "outputs": [
        {
          "internalType": "bool",
          "name": "",
          "type": "bool"
        }
      ],
      "stateMutability": "view",
      "type": "function"
    },
    {
      "inputs": [
        {
          "components": [
            {
              "internalType": "uint32",
              "name": "srcEid",
              "type": "uint32"
            },
            {
              "internalType": "bytes32",
              "name": "sender",
              "type": "bytes32"
            },
            {
              "internalType": "uint64",
              "name": "nonce",
              "type": "uint64"
            }
          ],
          "internalType": "struct Origin",
          "name": "_origin",
          "type": "tuple"
        },
        {
          "internalType": "bytes32",
          "name": "_guid",
          "type": "bytes32"
        },
        {
          "internalType": "bytes",
          "name": "_message",
          "type": "bytes"
        },
        {
          "internalType": "address",
          "name": "_executor",
          "type": "address"
        },
        {
          "internalType": "bytes",
          "name": "_extraData",
          "type": "bytes"
        }
      ],
      "name": "lzReceive",
      "outputs": [],
      "stateMutability": "payable",
      "type": "function"
    },
    {
      "inputs": [
        {
          "internalType": "uint32",
          "name": "",
          "type": "uint32"
        },
        {
          "internalType": "bytes32",
          "name": "",
          "type": "bytes32"
        }
      ],
      "name": "nextNonce",
      "outputs": [
        {
          "internalType": "uint64",
          "name": "nonce",
          "type": "uint64"
        }
      ],
      "stateMutability": "view",
      "type": "function"
    },
    {
      "inputs": [],
      "name": "oAppVersion",
      "outputs": [
        {
          "internalType": "uint64",
          "name": "senderVersion",
          "type": "uint64"
        },
        {
          "internalType": "uint64",
          "name": "receiverVersion",
          "type": "uint64"
        }
      ],
      "stateMutability": "pure",
      "type": "function"
    },
    {
      "inputs": [],
      "name": "owner",
      "outputs": [
        {
          "internalType": "address",
          "name": "",
          "type": "address"
        }
      ],
      "stateMutability": "view",
      "type": "function"
    },
    {
      "inputs": [
        {
          "internalType": "uint32",
          "name": "eid",
          "type": "uint32"
        }
      ],
      "name": "peers",
      "outputs": [
        {
          "internalType": "bytes32",
          "name": "peer",
          "type": "bytes32"
        }
      ],
      "stateMutability": "view",
      "type": "function"
    },
    {
      "inputs": [],
      "name": "renounceOwnership",
      "outputs": [],
      "stateMutability": "nonpayable",
      "type": "function"
    },
    {
      "inputs": [
        {
          "internalType": "address",
          "name": "_delegate",
          "type": "address"
        }
      ],
      "name": "setDelegate",
      "outputs": [],
      "stateMutability": "nonpayable",
      "type": "function"
    },
    {
      "inputs": [
        {
          "components": [
            {
              "internalType": "uint32",
              "name": "eid",
              "type": "uint32"
            },
            {
              "internalType": "uint16",
              "name": "msgType",
              "type": "uint16"
            },
            {
              "internalType": "bytes",
              "name": "options",
              "type": "bytes"
            }
          ],
          "internalType": "struct EnforcedOptionParam[]",
          "name": "_enforcedOptions",
          "type": "tuple[]"
        }
      ],
      "name": "setEnforcedOptions",
      "outputs": [],
      "stateMutability": "nonpayable",
      "type": "function"
    },
    {
      "inputs": [
        {
          "internalType": "uint32",
          "name": "_eid",
          "type": "uint32"
        },
        {
          "internalType": "bytes32",
          "name": "_peer",
          "type": "bytes32"
        }
      ],
      "name": "setPeer",
      "outputs": [],
      "stateMutability": "nonpayable",
      "type": "function"
    },
    {
      "inputs": [],
      "name": "ssrData",
      "outputs": [
        {
          "internalType": "uint96",
          "name": "ssr",
          "type": "uint96"
        },
        {
          "internalType": "uint120",
          "name": "chi",
          "type": "uint120"
        },
        {
          "internalType": "uint40",
          "name": "rho",
          "type": "uint40"
        }
      ],
      "stateMutability": "view",
      "type": "function"
    },
    {
      "inputs": [
        {
          "internalType": "address",
          "name": "newOwner",
          "type": "address"
        }
      ],
      "name": "transferOwnership",
      "outputs": [],
      "stateMutability": "nonpayable",
      "type": "function"
    }
  ],
  "bytecode": "0x60a060405234801561000f575f5ffd5b50604051612821380380612821833981810160405281019061003191906102e1565b81818181845f73ffffffffffffffffffffffffffffffffffffffff168173ffffffffffffffffffffffffffffffffffffffff16036100a6575f6040517f1e4fbdf700000000000000000000000000000000000000000000000000000000815260040161009d919061032e565b60405180910390fd5b6100b5816101c260201b60201c565b508173ffffffffffffffffffffffffffffffffffffffff1660808173ffffffffffffffffffffffffffffffffffffffff16815250505f73ffffffffffffffffffffffffffffffffffffffff168173ffffffffffffffffffffffffffffffffffffffff160361014f576040517fb586360400000000000000000000000000000000000000000000000000000000815260040160405180910390fd5b60805173ffffffffffffffffffffffffffffffffffffffff1663ca5eb5e1826040518263ffffffff1660e01b815260040161018a919061032e565b5f604051808303815f87803b1580156101a1575f5ffd5b505af11580156101b3573d5f5f3e3d5ffd5b50505050505050505050610347565b5f5f5f9054906101000a900473ffffffffffffffffffffffffffffffffffffffff169050815f5f6101000a81548173ffffffffffffffffffffffffffffffffffffffff021916908373ffffffffffffffffffffffffffffffffffffffff1602179055508173ffffffffffffffffffffffffffffffffffffffff168173ffffffffffffffffffffffffffffffffffffffff167f8be0079c531659141344cd1fd0a4f28419497f9722a3daafe3b4186f6b6457e060405160405180910390a35050565b5f5ffd5b5f73ffffffffffffffffffffffffffffffffffffffff82169050919050565b5f6102b082610287565b9050919050565b6102c0816102a6565b81146102ca575f5ffd5b50565b5f815190506102db816102b7565b92915050565b5f5f604083850312156102f7576102f6610283565b5b5f610304858286016102cd565b9250506020610315858286016102cd565b9150509250929050565b610328816102a6565b82525050565b5f6020820190506103415f83018461031f565b92915050565b6080516124b461036d5f395f818161045e01528181610641015261097b01526124b45ff3fe608060405260043610610108575f3560e01c806382413eac11610094578063bc70b35411610063578063bc70b35414610353578063ca5eb5e11461038f578063f2fde38b146103b7578063f36089ec146103df578063ff7bd03d1461040957610108565b806382413eac146102895780638da5cb5b146102c5578063b98bd070146102ef578063bb0b6a531461031757610108565b80635535d461116100db5780635535d461146101a55780635e280f11146101e1578063715018a61461020b5780637d25a05e1461022157806380be0a8f1461025d57610108565b806313137d651461010c57806317442b70146101285780633400288b14610153578063552033c41461017b575b5f5ffd5b61012660048036038101906101219190611332565b610445565b005b348015610133575f5ffd5b5061013c610565565b60405161014a92919061140b565b60405180910390f35b34801561015e575f5ffd5b506101796004803603810190610174919061146b565b610573565b005b348015610186575f5ffd5b5061018f610589565b60405161019c91906114c1565b60405180910390f35b3480156101b0575f5ffd5b506101cb60048036038101906101c69190611511565b610599565b6040516101d891906115bf565b60405180910390f35b3480156101ec575f5ffd5b506101f561063f565b604051610202919061163a565b60405180910390f35b348015610216575f5ffd5b5061021f610663565b005b34801561022c575f5ffd5b506102476004803603810190610242919061146b565b610676565b6040516102549190611653565b60405180910390f35b348015610268575f5ffd5b50610271610680565b604051610280939291906116da565b60405180910390f35b348015610294575f5ffd5b506102af60048036038101906102aa919061170f565b6106d8565b6040516102bc919061179a565b60405180910390f35b3480156102d0575f5ffd5b506102d9610712565b6040516102e691906117c2565b60405180910390f35b3480156102fa575f5ffd5b5061031560048036038101906103109190611830565b610739565b005b348015610322575f5ffd5b5061033d6004803603810190610338919061187b565b61075a565b60405161034a91906118b5565b60405180910390f35b34801561035e575f5ffd5b50610379600480360381019061037491906118ce565b61076f565b60405161038691906115bf565b60405180910390f35b34801561039a575f5ffd5b506103b560048036038101906103b0919061193f565b610971565b005b3480156103c2575f5ffd5b506103dd60048036038101906103d8919061193f565b610a02565b005b3480156103ea575f5ffd5b506103f3610a86565b60405161040091906114c1565b60405180910390f35b348015610414575f5ffd5b5061042f600480360381019061042a919061196a565b610b3d565b60405161043c919061179a565b60405180910390f35b3373ffffffffffffffffffffffffffffffffffffffff167f000000000000000000000000000000000000000000000000000000000000000073ffffffffffffffffffffffffffffffffffffffff16146104d557336040517f91ac5e4f0000000000000000000000000000000000000000000000000000000081526004016104cc91906117c2565b60405180910390fd5b86602001356104f4885f0160208101906104ef919061187b565b610b7a565b1461054d57865f01602081019061050b919061187b565b87602001356040517fc26bebcc0000000000000000000000000000000000000000000000000000000081526004016105449291906119a4565b60405180910390fd5b61055c87878787878787610beb565b50505050505050565b5f5f60016002915091509091565b61057b610e39565b6105858282610ec0565b5050565b6b033b2e3c9fd0803ce800000081565b6002602052815f5260405f20602052805f5260405f205f915091505080546105c0906119f8565b80601f01602080910402602001604051908101604052809291908181526020018280546105ec906119f8565b80156106375780601f1061060e57610100808354040283529160200191610637565b820191905f5260205f20905b81548152906001019060200180831161061a57829003601f168201915b505050505081565b7f000000000000000000000000000000000000000000000000000000000000000081565b61066b610e39565b6106745f610f1f565b565b5f5f905092915050565b6003805f015f9054906101000a90046bffffffffffffffffffffffff1690805f01600c9054906101000a90046effffffffffffffffffffffffffffff1690805f01601b9054906101000a900464ffffffffff16905083565b5f3073ffffffffffffffffffffffffffffffffffffffff168273ffffffffffffffffffffffffffffffffffffffff16149050949350505050565b5f5f5f9054906101000a900473ffffffffffffffffffffffffffffffffffffffff16905090565b610741610e39565b6107568282906107519190611c86565b610fe0565b5050565b6001602052805f5260405f205f915090505481565b60605f60025f8763ffffffff1663ffffffff1681526020019081526020015f205f8661ffff1661ffff1681526020019081526020015f2080546107b1906119f8565b80601f01602080910402602001604051908101604052809291908181526020018280546107dd906119f8565b80156108285780601f106107ff57610100808354040283529160200191610828565b820191905f5260205f20905b81548152906001019060200180831161080b57829003601f168201915b505050505090505f8151036108835783838080601f0160208091040260200160405190810160405280939291908181526020018383808284375f81840152601f19601f82011690508083019250505050505050915050610969565b5f84849050036108965780915050610969565b6002848490501061092a576108ed84848080601f0160208091040260200160405190810160405280939291908181526020018383808284375f81840152601f19601f820116905080830192505050505050506110f8565b808484600290809261090193929190611ca2565b60405160200161091393929190611d3a565b604051602081830303815290604052915050610969565b83836040517f9a6d49cd000000000000000000000000000000000000000000000000000000008152600401610960929190611d8b565b60405180910390fd5b949350505050565b610979610e39565b7f000000000000000000000000000000000000000000000000000000000000000073ffffffffffffffffffffffffffffffffffffffff1663ca5eb5e1826040518263ffffffff1660e01b81526004016109d291906117c2565b5f604051808303815f87803b1580156109e9575f5ffd5b505af11580156109fb573d5f5f3e3d5ffd5b5050505050565b610a0a610e39565b5f73ffffffffffffffffffffffffffffffffffffffff168173ffffffffffffffffffffffffffffffffffffffff1603610a7a575f6040517f1e4fbdf7000000000000000000000000000000000000000000000000000000008152600401610a7191906117c2565b60405180910390fd5b610a8381610f1f565b50565b5f5f60035f01601b9054906101000a900464ffffffffff1664ffffffffff1642610ab09190611dda565b90506b033b2e3c9fd0803ce8000000610af260035f015f9054906101000a90046bffffffffffffffffffffffff166bffffffffffffffffffffffff1683611151565b60035f01600c9054906101000a90046effffffffffffffffffffffffffffff166effffffffffffffffffffffffffffff16610b2d9190611e0d565b610b379190611e7b565b91505090565b5f816020013560015f845f016020810190610b58919061187b565b63ffffffff1663ffffffff1681526020019081526020015f2054149050919050565b5f5f60015f8463ffffffff1663ffffffff1681526020019081526020015f205490505f5f1b8103610be257826040517ff6ff4fb7000000000000000000000000000000000000000000000000000000008152600401610bd99190611eab565b60405180910390fd5b80915050919050565b5f5f5f8787810190610bfd9190611eee565b9250925092505f60036040518060600160405290815f82015f9054906101000a90046bffffffffffffffffffffffff166bffffffffffffffffffffffff166bffffffffffffffffffffffff1681526020015f8201600c9054906101000a90046effffffffffffffffffffffffffffff166effffffffffffffffffffffffffffff166effffffffffffffffffffffffffffff1681526020015f8201601b9054906101000a900464ffffffffff1664ffffffffff1664ffffffffff1681525050905081816040015164ffffffffff161115610d02576040517f6ead710b00000000000000000000000000000000000000000000000000000000815260040160405180910390fd5b6040518060600160405280856bffffffffffffffffffffffff168152602001846effffffffffffffffffffffffffffff1681526020018364ffffffffff1681525060035f820151815f015f6101000a8154816bffffffffffffffffffffffff02191690836bffffffffffffffffffffffff1602179055506020820151815f01600c6101000a8154816effffffffffffffffffffffffffffff02191690836effffffffffffffffffffffffffffff1602179055506040820151815f01601b6101000a81548164ffffffffff021916908364ffffffffff1602179055509050507fc04254ac24c1a747c01561e9d2f413b4b6764a424b5199d2f1a12db765865193815f015185836020015186856040015187604051610e2496959493929190611fce565b60405180910390a15050505050505050505050565b610e4161120a565b73ffffffffffffffffffffffffffffffffffffffff16610e5f610712565b73ffffffffffffffffffffffffffffffffffffffff1614610ebe57610e8261120a565b6040517f118cdaa7000000000000000000000000000000000000000000000000000000008152600401610eb591906117c2565b60405180910390fd5b565b8060015f8463ffffffff1663ffffffff1681526020019081526020015f20819055507f238399d427b947898edb290f5ff0f9109849b1c3ba196a42e35f00c50a54b98b8282604051610f139291906119a4565b60405180910390a15050565b5f5f5f9054906101000a900473ffffffffffffffffffffffffffffffffffffffff169050815f5f6101000a81548173ffffffffffffffffffffffffffffffffffffffff021916908373ffffffffffffffffffffffffffffffffffffffff1602179055508173ffffffffffffffffffffffffffffffffffffffff168173ffffffffffffffffffffffffffffffffffffffff167f8be0079c531659141344cd1fd0a4f28419497f9722a3daafe3b4186f6b6457e060405160405180910390a35050565b5f5f90505b81518110156110bd576110158282815181106110045761100361202d565b5b6020026020010151604001516110f8565b8181815181106110285761102761202d565b5b60200260200101516040015160025f84848151811061104a5761104961202d565b5b60200260200101515f015163ffffffff1663ffffffff1681526020019081526020015f205f8484815181106110825761108161202d565b5b60200260200101516020015161ffff1661ffff1681526020019081526020015f2090816110af91906121f1565b508080600101915050610fe5565b507fbe4864a8e820971c0247f5992e2da559595f7bf076a21cb5928d443d2a13b674816040516110ed919061242e565b60405180910390a150565b5f60028201519050600361ffff168161ffff161461114d57816040517f9a6d49cd00000000000000000000000000000000000000000000000000000000815260040161114491906115bf565b60405180910390fd5b5050565b5f5f600283611160919061244e565b03611177576b033b2e3c9fd0803ce8000000611179565b825b90506002826111889190611e7b565b91505b5f8214611204576b033b2e3c9fd0803ce800000083846111ab9190611e0d565b6111b59190611e7b565b92505f6002836111c5919061244e565b146111f0576b033b2e3c9fd0803ce800000083826111e39190611e0d565b6111ed9190611e7b565b90505b6002826111fd9190611e7b565b915061118b565b92915050565b5f33905090565b5f604051905090565b5f5ffd5b5f5ffd5b5f5ffd5b5f6060828403121561123b5761123a611222565b5b81905092915050565b5f819050919050565b61125681611244565b8114611260575f5ffd5b50565b5f813590506112718161124d565b92915050565b5f5ffd5b5f5ffd5b5f5ffd5b5f5f83601f84011261129857611297611277565b5b8235905067ffffffffffffffff8111156112b5576112b461127b565b5b6020830191508360018202830111156112d1576112d061127f565b5b9250929050565b5f73ffffffffffffffffffffffffffffffffffffffff82169050919050565b5f611301826112d8565b9050919050565b611311816112f7565b811461131b575f5ffd5b50565b5f8135905061132c81611308565b92915050565b5f5f5f5f5f5f5f60e0888a03121561134d5761134c61121a565b5b5f61135a8a828b01611226565b975050606061136b8a828b01611263565b965050608088013567ffffffffffffffff81111561138c5761138b61121e565b5b6113988a828b01611283565b955095505060a06113ab8a828b0161131e565b93505060c088013567ffffffffffffffff8111156113cc576113cb61121e565b5b6113d88a828b01611283565b925092505092959891949750929550565b5f67ffffffffffffffff82169050919050565b611405816113e9565b82525050565b5f60408201905061141e5f8301856113fc565b61142b60208301846113fc565b9392505050565b5f63ffffffff82169050919050565b61144a81611432565b8114611454575f5ffd5b50565b5f8135905061146581611441565b92915050565b5f5f604083850312156114815761148061121a565b5b5f61148e85828601611457565b925050602061149f85828601611263565b9150509250929050565b5f819050919050565b6114bb816114a9565b82525050565b5f6020820190506114d45f8301846114b2565b92915050565b5f61ffff82169050919050565b6114f0816114da565b81146114fa575f5ffd5b50565b5f8135905061150b816114e7565b92915050565b5f5f604083850312156115275761152661121a565b5b5f61153485828601611457565b9250506020611545858286016114fd565b9150509250929050565b5f81519050919050565b5f82825260208201905092915050565b8281835e5f83830152505050565b5f601f19601f8301169050919050565b5f6115918261154f565b61159b8185611559565b93506115ab818560208601611569565b6115b481611577565b840191505092915050565b5f6020820190508181035f8301526115d78184611587565b905092915050565b5f819050919050565b5f6116026115fd6115f8846112d8565b6115df565b6112d8565b9050919050565b5f611613826115e8565b9050919050565b5f61162482611609565b9050919050565b6116348161161a565b82525050565b5f60208201905061164d5f83018461162b565b92915050565b5f6020820190506116665f8301846113fc565b92915050565b5f6bffffffffffffffffffffffff82169050919050565b61168c8161166c565b82525050565b5f6effffffffffffffffffffffffffffff82169050919050565b6116b581611692565b82525050565b5f64ffffffffff82169050919050565b6116d4816116bb565b82525050565b5f6060820190506116ed5f830186611683565b6116fa60208301856116ac565b61170760408301846116cb565b949350505050565b5f5f5f5f60a085870312156117275761172661121a565b5b5f61173487828801611226565b945050606085013567ffffffffffffffff8111156117555761175461121e565b5b61176187828801611283565b935093505060806117748782880161131e565b91505092959194509250565b5f8115159050919050565b61179481611780565b82525050565b5f6020820190506117ad5f83018461178b565b92915050565b6117bc816112f7565b82525050565b5f6020820190506117d55f8301846117b3565b92915050565b5f5f83601f8401126117f0576117ef611277565b5b8235905067ffffffffffffffff81111561180d5761180c61127b565b5b6020830191508360208202830111156118295761182861127f565b5b9250929050565b5f5f602083850312156118465761184561121a565b5b5f83013567ffffffffffffffff8111156118635761186261121e565b5b61186f858286016117db565b92509250509250929050565b5f602082840312156118905761188f61121a565b5b5f61189d84828501611457565b91505092915050565b6118af81611244565b82525050565b5f6020820190506118c85f8301846118a6565b92915050565b5f5f5f5f606085870312156118e6576118e561121a565b5b5f6118f387828801611457565b9450506020611904878288016114fd565b935050604085013567ffffffffffffffff8111156119255761192461121e565b5b61193187828801611283565b925092505092959194509250565b5f602082840312156119545761195361121a565b5b5f6119618482850161131e565b91505092915050565b5f6060828403121561197f5761197e61121a565b5b5f61198c84828501611226565b91505092915050565b61199e81611432565b82525050565b5f6040820190506119b75f830185611995565b6119c460208301846118a6565b9392505050565b7f4e487b71000000000000000000000000000000000000000000000000000000005f52602260045260245ffd5b5f6002820490506001821680611a0f57607f821691505b602082108103611a2257611a216119cb565b5b50919050565b7f4e487b71000000000000000000000000000000000000000000000000000000005f52604160045260245ffd5b611a5e82611577565b810181811067ffffffffffffffff82111715611a7d57611a7c611a28565b5b80604052505050565b5f611a8f611211565b9050611a9b8282611a55565b919050565b5f67ffffffffffffffff821115611aba57611ab9611a28565b5b602082029050602081019050919050565b5f5ffd5b5f5ffd5b5f5ffd5b5f67ffffffffffffffff821115611af157611af0611a28565b5b611afa82611577565b9050602081019050919050565b828183375f83830152505050565b5f611b27611b2284611ad7565b611a86565b905082815260208101848484011115611b4357611b42611ad3565b5b611b4e848285611b07565b509392505050565b5f82601f830112611b6a57611b69611277565b5b8135611b7a848260208601611b15565b91505092915050565b5f60608284031215611b9857611b97611acb565b5b611ba26060611a86565b90505f611bb184828501611457565b5f830152506020611bc4848285016114fd565b602083015250604082013567ffffffffffffffff811115611be857611be7611acf565b5b611bf484828501611b56565b60408301525092915050565b5f611c12611c0d84611aa0565b611a86565b90508083825260208201905060208402830185811115611c3557611c3461127f565b5b835b81811015611c7c57803567ffffffffffffffff811115611c5a57611c59611277565b5b808601611c678982611b83565b85526020850194505050602081019050611c37565b5050509392505050565b5f611c92368484611c00565b905092915050565b5f5ffd5b5f5ffd5b5f5f85851115611cb557611cb4611c9a565b5b83861115611cc657611cc5611c9e565b5b6001850283019150848603905094509492505050565b5f81905092915050565b5f611cf08261154f565b611cfa8185611cdc565b9350611d0a818560208601611569565b80840191505092915050565b5f611d218385611cdc565b9350611d2e838584611b07565b82840190509392505050565b5f611d458286611ce6565b9150611d52828486611d16565b9150819050949350505050565b5f611d6a8385611559565b9350611d77838584611b07565b611d8083611577565b840190509392505050565b5f6020820190508181035f830152611da4818486611d5f565b90509392505050565b7f4e487b71000000000000000000000000000000000000000000000000000000005f52601160045260245ffd5b5f611de4826114a9565b9150611def836114a9565b9250828203905081811115611e0757611e06611dad565b5b92915050565b5f611e17826114a9565b9150611e22836114a9565b9250828202611e30816114a9565b91508282048414831517611e4757611e46611dad565b5b5092915050565b7f4e487b71000000000000000000000000000000000000000000000000000000005f52601260045260245ffd5b5f611e85826114a9565b9150611e90836114a9565b925082611ea057611e9f611e4e565b5b828204905092915050565b5f602082019050611ebe5f830184611995565b92915050565b611ecd816114a9565b8114611ed7575f5ffd5b50565b5f81359050611ee881611ec4565b92915050565b5f5f5f60608486031215611f0557611f0461121a565b5b5f611f1286828701611eda565b9350506020611f2386828701611eda565b9250506040611f3486828701611eda565b9150509250925092565b5f611f58611f53611f4e8461166c565b6115df565b6114a9565b9050919050565b611f6881611f3e565b82525050565b5f611f88611f83611f7e84611692565b6115df565b6114a9565b9050919050565b611f9881611f6e565b82525050565b5f611fb8611fb3611fae846116bb565b6115df565b6114a9565b9050919050565b611fc881611f9e565b82525050565b5f60c082019050611fe15f830189611f5f565b611fee60208301886114b2565b611ffb6040830187611f8f565b61200860608301866114b2565b6120156080830185611fbf565b61202260a08301846114b2565b979650505050505050565b7f4e487b71000000000000000000000000000000000000000000000000000000005f52603260045260245ffd5b5f819050815f5260205f209050919050565b5f6020601f8301049050919050565b5f82821b905092915050565b5f600883026120b67fffffffffffffffffffffffffffffffffffffffffffffffffffffffffffffffff8261207b565b6120c0868361207b565b95508019841693508086168417925050509392505050565b5f6120f26120ed6120e8846114a9565b6115df565b6114a9565b9050919050565b5f819050919050565b61210b836120d8565b61211f612117826120f9565b848454612087565b825550505050565b5f5f905090565b612136612127565b612141818484612102565b505050565b5b81811015612164576121595f8261212e565b600181019050612147565b5050565b601f8211156121a95761217a8161205a565b6121838461206c565b81016020851015612192578190505b6121a661219e8561206c565b830182612146565b50505b505050565b5f82821c905092915050565b5f6121c95f19846008026121ae565b1980831691505092915050565b5f6121e183836121ba565b9150826002028217905092915050565b6121fa8261154f565b67ffffffffffffffff81111561221357612212611a28565b5b61221d82546119f8565b612228828285612168565b5f60209050601f831160018114612259575f8415612247578287015190505b61225185826121d6565b8655506122b8565b601f1984166122678661205a565b5f5b8281101561228e57848901518255600182019150602085019450602081019050612269565b868310156122ab57848901516122a7601f8916826121ba565b8355505b6001600288020188555050505b505050505050565b5f81519050919050565b5f82825260208201905092915050565b5f819050602082019050919050565b6122f281611432565b82525050565b612301816114da565b82525050565b5f82825260208201905092915050565b5f6123218261154f565b61232b8185612307565b935061233b818560208601611569565b61234481611577565b840191505092915050565b5f606083015f8301516123645f8601826122e9565b50602083015161237760208601826122f8565b506040830151848203604086015261238f8282612317565b9150508091505092915050565b5f6123a7838361234f565b905092915050565b5f602082019050919050565b5f6123c5826122c0565b6123cf81856122ca565b9350836020820285016123e1856122da565b805f5b8581101561241c57848403895281516123fd858261239c565b9450612408836123af565b925060208a019950506001810190506123e4565b50829750879550505050505092915050565b5f6020820190508181035f83015261244681846123bb565b905092915050565b5f612458826114a9565b9150612463836114a9565b92508261247357612472611e4e565b5b82820690509291505056fea2646970667358221220367ded2f53dcc1afcabd8abf9c1a47c471c56cf10cd540e1e0c9426844eaeaea64736f6c634300081c0033",
  "linkReferences": {},
  "deployedLinkReferences": {},
  "immutableReferences": {
    "781": [
      {
        "length": 32,
        "start": 1118
      },
      {
        "length": 32,
        "start": 1601
      },
      {
        "length": 32,
        "start": 2427
      }
    ]
  },
  "inputSourceName": "project/contracts/SSROracle.sol",
  "buildInfoId": "solc-0_8_28-5a30c7a8915209244767e25533407751e8d4c7f9"
}